:100000007FC00000000000000000000000000000B1
:1000100000000000000000000000000000000000E0
:1000200000000000000000000000000000000000D0
:1000300000000000000000000000000000000000C0
:1000400000000000000000000000000000000000B0
:1000500000000000000000000000000000000000A0
:100060000000000000000000000000000000000090
:100070000000000000000000000000000000000080
:100080000000000000000000000000000000000070
:100090000000000000000000000000000000000060
:1000A0000000000000000000000000000000000050
:1000B0000000000000000000000000000000000040
:1000C0000000000000000000000000000000000030
:1000D0000000000000000000000000000000000020
:1000E0000000000000000000000000000000000010
:1000F0000000000000000000000000000000000000
:1001000008E00EBF0FEF0DBF07E004B900E50AB924
:1001100011242224332444245524002711270BD0F2
:100120001ED021D044D0022D0270023009F0F5CF4C
:100130001CD02224F2CF00000A95E9F700001A959E
:10014000D1F709B10870202F122D1370212B2970BF
:1001500021F039E0321709F01395212E089509B1E5
:100160000770302E089545B8089529B1207809F018
:10017000089510E11BB9000019B11072E1F30AD023
:100180000027112700000A95E9F700001A95D1F71A
:1001900009D008950FE304B9032D000F000F000FDD
:1001A00005B9089507E004B900700BB9089509B1C5
:1001B000007809F4089510E41BB923B1287326953B
:0C01C00026952695422E11271BB90895A4
:0400000300000100F8
:00000001FF
