:100000007FC00000000000000000000000000000B1
:1000100000000000000000000000000000000000E0
:1000200000000000000000000000000000000000D0
:1000300000000000000000000000000000000000C0
:1000400000000000000000000000000000000000B0
:1000500000000000000000000000000000000000A0
:100060000000000000000000000000000000000090
:100070000000000000000000000000000000000080
:100080000000000000000000000000000000000070
:100090000000000000000000000000000000000060
:1000A0000000000000000000000000000000000050
:1000B0000000000000000000000000000000000040
:1000C0000000000000000000000000000000000030
:1000D0000000000000000000000000000000000020
:1000E0000000000000000000000000000000000010
:1000F0000000000000000000000000000000000000
:1001000008E00EBF0FEF0DBF07E004B900EA0AB91F
:1001100009D017D01AD0022D027011F0222417D066
:1001200031D0F6CF0BB1122D0870102B212F247077
:1001300011F0116004C0212F227009F41260212EE9
:1001400008950BB10770302E08954BB80895032D14
:10015000007809F4089510E11BB91BB11072E9F79A
:100160000E94B5000E94BD0008950FE304B9032D5D
:10017000000F000F000F05B9089507E004B90070E3
:100180000BB9089509B1007809F40895107423B1EA
:0C0190002873269526952695422E08958A
:0400000300000100F8
:00000001FF
