:100000000C9434000C9449000C9449000C94490061
:100010000C9449000C9449000C9449000C9449003C
:100020000C9449000C9449000C9449000C9449002C
:100030000C9449000C9449000C9449000C9449001C
:100040000C9449000C9449000C9449000C9449000C
:100050000C9449000C9449000C9449000C944900FC
:100060000C9449000C94490011241FBECFEFD8E036
:10007000DEBFCDBF11E0A0E0B1E0EEEEF2E002C0E5
:1000800005900D92A031B107D9F70E944B000C9456
:1000900075010C940000CF93DF9300D01F92CDB771
:1000A000DEB784EC89831A8280910C0190910D0156
:1000B00027E8FC01228380910C0190910D0120E43E
:1000C000FC0124830E943D010E94260189810E9437
:1000D000F50080E00E94F50080E00E94F5000E949B
:1000E000E7000E94260189810E94F50088E00E94B5
:1000F000F5008FEF0E94F5000E94E7000E942601A4
:1001000089810E94F50081E00E94F50080E20E9452
:10011000F5000E94E7000E94260189810E94F500F7
:1001200084E00E94F50080E00E94F5000E94E70054
:1001300080910C0190910D0120910C0130910D01E5
:10014000F90122812064FC012283000080910C01CE
:1001500090910D01FC018281882F90E08071992798
:10016000892BA1F380910C0190910D01FC018081FC
:10017000807E8A8380910C0190910D01FC01818128
:10018000882F90E0002496958795079496958795FB
:100190000794982F802D8B830E94260189810E94CD
:1001A000F50083E00E94F5008A810E94F5000E941C
:1001B000E7000E94260189810E94F50082E00E94EA
:1001C000F5008B810E94F5000E94E700B1CFCF932C
:1001D000DF93CDB7DEB780910E0190910F0124E936
:1001E000FC012483DF91CF910895CF93DF9300D05A
:1001F0001F92CDB7DEB78B8380910E0190910F01D6
:100200002B81FC01238380910E0190910F0124E842
:10021000FC012483000080910E0190910F01FC01EC
:1002200084818823C4F71A82198205C089819A8142
:1002300001969A83898389819A81883C9105B0F3DC
:100240000F900F900F90DF91CF910895CF93DF9390
:10025000CDB7DEB780910E0190910F0124EAFC0129
:100260002483000080910E0190910F01FC01848194
:100270008823C4F7DF91CF910895CF93DF9300D007
:1002800000D0CDB7DEB780910E0190910F01FC0137
:10029000118287E290E09A83898389819A81FC01A7
:1002A000108288E290E09C838B838B819C812FEF6E
:1002B000FC01208380910E0190910F0128E4FC0144
:1002C000208380910E0190910F01FC011182809199
:1002D0000E0190910F0124E0FC0124830F900F90F8
:0E02E0000F900F90DF91CF910895F894FFCF0B
:1002EE00230026002900440035006E007800B80077
:00000001FF
